{
  "transactions": [
    {
      "hash": "0xc0c5a48c6f7e32f0660bb5b6ead6ce59e3baffa6cd36399af0455740aee7aa9e",
      "transactionType": "CALL",
      "contractName": null,
      "contractAddress": "0x317bBdFbAe7845648864348A0C304392d0F2925F",
      "function": "depositTo(address)",
      "arguments": [
        "0xdAE5e7CEBe4872BF0776477EcCCD2A0eFdF54f0e"
      ],
      "transaction": {
        "type": "0x00",
        "from": "0x3bed5bbe9891b1b8fbe01c571b3a92960c6e9582",
        "to": "0x317bbdfbae7845648864348a0c304392d0f2925f",
        "gas": "0xf606",
        "value": "0x16345785d8a0000",
        "data": "0xb760faf9000000000000000000000000dae5e7cebe4872bf0776477ecccd2a0efdf54f0e",
        "nonce": "0x47"
      },
      "additionalContracts": [],
      "isFixedGasLimit": false
    },
    {
      "hash": "0x5eeebcd3d83c3642acade2d80b5742cdb280d8efd1616a89729197fa373cac87",
      "transactionType": "CALL",
      "contractName": null,
      "contractAddress": "0x317bBdFbAe7845648864348A0C304392d0F2925F",
      "function": "depositTo(address)",
      "arguments": [
        "0xaeD6b252635DcEF5Ba85dE52173FF040a18CEC6a"
      ],
      "transaction": {
        "type": "0x00",
        "from": "0x3bed5bbe9891b1b8fbe01c571b3a92960c6e9582",
        "to": "0x317bbdfbae7845648864348a0c304392d0f2925f",
        "gas": "0xf606",
        "value": "0x16345785d8a0000",
        "data": "0xb760faf9000000000000000000000000aed6b252635dcef5ba85de52173ff040a18cec6a",
        "nonce": "0x48"
      },
      "additionalContracts": [],
      "isFixedGasLimit": false
    }
  ],
  "receipts": [
    {
      "transactionHash": "0xc0c5a48c6f7e32f0660bb5b6ead6ce59e3baffa6cd36399af0455740aee7aa9e",
      "transactionIndex": "0x0",
      "blockHash": "0xa01d874dea40c25294131b632dd99289e3f1e486638d6e985aea10ef48cd6a53",
      "blockNumber": "0x2845d7",
      "from": "0x3bed5BbE9891B1B8fbe01c571b3A92960c6E9582",
      "to": "0x317bBdFbAe7845648864348A0C304392d0F2925F",
      "cumulativeGasUsed": "0xb21f",
      "gasUsed": "0xb21f",
      "contractAddress": null,
      "logs": [
        {
          "address": "0x317bBdFbAe7845648864348A0C304392d0F2925F",
          "topics": [
            "0x2da466a7b24304f47e87fa2e1e5a81b9831ce54fec19055ce277ca2f39ba42c4",
            "0x000000000000000000000000dae5e7cebe4872bf0776477ecccd2a0efdf54f0e"
          ],
          "data": "0x000000000000000000000000000000000000000000000000016345785d8a0000",
          "blockHash": "0xa01d874dea40c25294131b632dd99289e3f1e486638d6e985aea10ef48cd6a53",
          "blockNumber": "0x2845d7",
          "transactionHash": "0xc0c5a48c6f7e32f0660bb5b6ead6ce59e3baffa6cd36399af0455740aee7aa9e",
          "transactionIndex": "0x0",
          "logIndex": "0x0",
          "removed": false
        }
      ],
      "status": "0x1",
      "logsBloom": "0x00000000000000000000000000000000000000000000000000000000000000000000000000000000008000000000001000000000000000000000000000000000000000000000000000000000000000000000000000008000000000000000200000000000000000000008000000000000000000010000000000000000000200000000000000000000000000000000000000000000000000000000000000000000000000000000000000000000000000000000000000000000000000000000000000000000000000000000000000000000000000000000000000000000000000000040000000000000000000000000000000000000008000000000000000000000",
      "type": "0x0",
      "effectiveGasPrice": "0x5f5e107"
    },
    {
      "transactionHash": "0x5eeebcd3d83c3642acade2d80b5742cdb280d8efd1616a89729197fa373cac87",
      "transactionIndex": "0x1",
      "blockHash": "0xa01d874dea40c25294131b632dd99289e3f1e486638d6e985aea10ef48cd6a53",
      "blockNumber": "0x2845d7",
      "from": "0x3bed5BbE9891B1B8fbe01c571b3A92960c6E9582",
      "to": "0x317bBdFbAe7845648864348A0C304392d0F2925F",
      "cumulativeGasUsed": "0x1643e",
      "gasUsed": "0xb21f",
      "contractAddress": null,
      "logs": [
        {
          "address": "0x317bBdFbAe7845648864348A0C304392d0F2925F",
          "topics": [
            "0x2da466a7b24304f47e87fa2e1e5a81b9831ce54fec19055ce277ca2f39ba42c4",
            "0x000000000000000000000000aed6b252635dcef5ba85de52173ff040a18cec6a"
          ],
          "data": "0x000000000000000000000000000000000000000000000000016345785d8a0000",
          "blockHash": "0xa01d874dea40c25294131b632dd99289e3f1e486638d6e985aea10ef48cd6a53",
          "blockNumber": "0x2845d7",
          "transactionHash": "0x5eeebcd3d83c3642acade2d80b5742cdb280d8efd1616a89729197fa373cac87",
          "transactionIndex": "0x1",
          "logIndex": "0x1",
          "removed": false
        }
      ],
      "status": "0x1",
      "logsBloom": "0x00000000000000000000000000000000000000000000000000000000000000000000000000000000000000000000001000000000000004000000000000000000000000000000000000000000000000000000000000000000000000000000200000000000000000000008000000000000000000010000000000000010000200800000000000000000000000000000000000000000000000000000000000000000000000000000000000000000000000000000000000000000000000000000000000000000000000000000000000000000000000000000000000000000000000000040000000000000000000000000000000000000000000000000000000000000",
      "type": "0x0",
      "effectiveGasPrice": "0x5f5e107"
    }
  ],
  "libraries": [],
  "pending": [],
  "returns": {},
  "timestamp": 1715052443,
  "chain": 200810,
  "commit": "dc67f53"
}